{
  "contractName": "Crowdfunding",
  "abi": [
    {
      "anonymous": false,
      "inputs": [
        {
          "indexed": false,
          "internalType": "uint256",
          "name": "campaignID",
          "type": "uint256"
        }
      ],
      "name": "CampaignCreated",
      "type": "event"
    },
    {
      "anonymous": false,
      "inputs": [
        {
          "indexed": true,
          "internalType": "address",
          "name": "funder",
          "type": "address"
        }
      ],
      "name": "Contribution",
      "type": "event"
    },
    {
      "anonymous": false,
      "inputs": [
        {
          "indexed": false,
          "internalType": "uint256",
          "name": "campaignID",
          "type": "uint256"
        }
      ],
      "name": "GoalReached",
      "type": "event"
    },
    {
      "constant": false,
      "inputs": [
        {
          "internalType": "address payable",
          "name": "beneficiary",
          "type": "address"
        },
        {
          "internalType": "uint256",
          "name": "goal",
          "type": "uint256"
        }
      ],
      "name": "newCampaign",
      "outputs": [],
      "payable": false,
      "stateMutability": "nonpayable",
      "type": "function"
    },
    {
      "constant": false,
      "inputs": [
        {
          "internalType": "uint256",
          "name": "campaignID",
          "type": "uint256"
        }
      ],
      "name": "contribute",
      "outputs": [],
      "payable": true,
      "stateMutability": "payable",
      "type": "function"
    },
    {
      "constant": false,
      "inputs": [
        {
          "internalType": "uint256",
          "name": "campaignID",
          "type": "uint256"
        }
      ],
      "name": "checkGoalReached",
      "outputs": [
        {
          "internalType": "bool",
          "name": "reached",
          "type": "bool"
        }
      ],
      "payable": false,
      "stateMutability": "nonpayable",
      "type": "function"
    },
    {
      "constant": true,
      "inputs": [
        {
          "internalType": "uint256",
          "name": "campaignID",
          "type": "uint256"
        }
      ],
      "name": "getBeneficiary",
      "outputs": [
        {
          "internalType": "address",
          "name": "beneficiary",
          "type": "address"
        }
      ],
      "payable": false,
      "stateMutability": "view",
      "type": "function"
    },
    {
      "constant": true,
      "inputs": [
        {
          "internalType": "uint256",
          "name": "campaignID",
          "type": "uint256"
        }
      ],
      "name": "getCampaignAmount",
      "outputs": [
        {
          "internalType": "uint256",
          "name": "amount",
          "type": "uint256"
        }
      ],
      "payable": false,
      "stateMutability": "view",
      "type": "function"
    }
  ],
  "bytecode": "0x608060405234801561001057600080fd5b5061086e806100206000396000f3fe60806040526004361061004a5760003560e01c8063296c10f41461004f578063302df0831461009e5780635b2329d414610119578063c1cbbca71461016c578063f7572cf31461019a575b600080fd5b34801561005b57600080fd5b506100886004803603602081101561007257600080fd5b81019080803590602001909291905050506101f5565b6040518082815260200191505060405180910390f35b3480156100aa57600080fd5b506100d7600480360360208110156100c157600080fd5b81019080803590602001909291905050506102aa565b604051808273ffffffffffffffffffffffffffffffffffffffff1673ffffffffffffffffffffffffffffffffffffffff16815260200191505060405180910390f35b34801561012557600080fd5b506101526004803603602081101561013c57600080fd5b810190808035906020019092919050505061035f565b604051808215151515815260200191505060405180910390f35b6101986004803603602081101561018257600080fd5b8101908080359060200190929190505050610452565b005b3480156101a657600080fd5b506101f3600480360360408110156101bd57600080fd5b81019080803573ffffffffffffffffffffffffffffffffffffffff169060200190929190803590602001909291905050506106d5565b005b60006101ff6107f4565b600260008481526020019081526020016000206040518060a0016040529081600082015481526020016001820160009054906101000a900473ffffffffffffffffffffffffffffffffffffffff1673ffffffffffffffffffffffffffffffffffffffff1673ffffffffffffffffffffffffffffffffffffffff168152602001600282015481526020016003820154815260200160048201548152505090508060800151915050919050565b60006102b46107f4565b600260008481526020019081526020016000206040518060a0016040529081600082015481526020016001820160009054906101000a900473ffffffffffffffffffffffffffffffffffffffff1673ffffffffffffffffffffffffffffffffffffffff1673ffffffffffffffffffffffffffffffffffffffff168152602001600282015481526020016003820154815260200160048201548152505090508060200151915050919050565b60008060026000848152602001908152602001600020905080600201548160040154101561039157600091505061044d565b600081600401549050600082600401819055508160010160009054906101000a900473ffffffffffffffffffffffffffffffffffffffff1673ffffffffffffffffffffffffffffffffffffffff166108fc829081150290604051600060405180830381858888f1935050505015801561040e573d6000803e3d6000fd5b507ffbfd8ab7c24300fa9888cd721c8565a7da56759384781283684dcf7c7c4a846b846040518082815260200191505060405180910390a16001925050505b919050565b600073ffffffffffffffffffffffffffffffffffffffff1660008083815260200190815260200160002060003373ffffffffffffffffffffffffffffffffffffffff1673ffffffffffffffffffffffffffffffffffffffff16815260200190815260200160002060000160009054906101000a900473ffffffffffffffffffffffffffffffffffffffff1673ffffffffffffffffffffffffffffffffffffffff16141561060557600060026000838152602001908152602001600020905060405180604001604052803373ffffffffffffffffffffffffffffffffffffffff1681526020013481525060008084815260200190815260200160002060003373ffffffffffffffffffffffffffffffffffffffff1673ffffffffffffffffffffffffffffffffffffffff16815260200190815260200160002060008201518160000160006101000a81548173ffffffffffffffffffffffffffffffffffffffff021916908373ffffffffffffffffffffffffffffffffffffffff1602179055506020820151816001015590505034816004016000828254019250508190555060018160030160008282540192505081905550505b60006002600083815260200190815260200160002090503460008084815260200190815260200160002060003373ffffffffffffffffffffffffffffffffffffffff1673ffffffffffffffffffffffffffffffffffffffff168152602001908152602001600020600101600082825401925050819055503481600401600082825401925050819055503373ffffffffffffffffffffffffffffffffffffffff167f26ca392be7e3d9d0c0634fbc0457971d6ddcd123b3efb5ccaa0af7c33f4225c660405160405180910390a25050565b600080905060006001600081548092919060010191905055905060008090506040518060a001604052808381526020018673ffffffffffffffffffffffffffffffffffffffff16815260200182815260200185815260200184815250600260008481526020019081526020016000206000820151816000015560208201518160010160006101000a81548173ffffffffffffffffffffffffffffffffffffffff021916908373ffffffffffffffffffffffffffffffffffffffff1602179055506040820151816002015560608201518160030155608082015181600401559050507fbc0a5edd152fa5b886dcae82c5c109d113708653b4b9c0224549ccdf715af94e826040518082815260200191505060405180910390a15050505050565b6040518060a0016040528060008152602001600073ffffffffffffffffffffffffffffffffffffffff168152602001600081526020016000815260200160008152509056fea265627a7a72315820861e5868e207085ccc3dbbc2c43d514c8a79cc0882e31ee74a0c4bf2910a109f64736f6c63430005100032",
  "source": "pragma solidity >=0.4.0 <0.9.0;\n\n// Defines a new type with two fields.\n// Declaring a struct outside of a contract allows\n// it to be shared by multiple contracts.\n// Here, this is not really needed.\n\ncontract Crowdfunding {\n    // Structs can also be defined inside contracts, which makes them\n    // visible only there and in derived contracts.\n\n    struct Funder {\n        address addr;\n        uint256 amount;\n    }\n    struct Campaign {\n        uint256 campaignID;\n        address payable beneficiary;\n        uint256 fundingGoal;\n        uint256 numFunders;\n        uint256 amount;\n    }\n    \n    //uint256 numCampaignPerFunders;\n    mapping(uint256 => mapping(address => Funder)) campaignFunders;\n\n    uint256 numCampaigns;\n    mapping(uint256 => Campaign) campaigns;\n\n    event CampaignCreated(uint256 campaignID);\n\n    event Contribution(address indexed funder);\n\n    event GoalReached(uint256 campaignID);\n\n    function newCampaign(address payable beneficiary, uint256 goal) public {\n        uint256 amount = 0;\n        uint256 campaignID = numCampaigns++;\n        uint256 numFunders = 0;\n        // campaignID is return variable\n        // We cannot use \"campaigns[campaignID] = Campaign(beneficiary, goal, 0, 0)\"\n        // because the right hand side creates a memory-struct \"Campaign\" that contains a mapping.\n        campaigns[campaignID] = Campaign(\n            campaignID,\n            beneficiary,\n            numFunders,\n            goal,\n            amount\n        );\n\n        emit CampaignCreated(campaignID);\n    }\n\n    function contribute(uint256 campaignID) public payable {\n       \n        if(campaignFunders[campaignID][msg.sender].addr == address(0)) {\n            Campaign storage c = campaigns[campaignID];\n            campaignFunders[campaignID][msg.sender] = Funder(msg.sender,msg.value);\n            c.amount += msg.value;\n            c.numFunders += 1; \n        }\n\n        Campaign storage campaign = campaigns[campaignID];\n        campaignFunders[campaignID][msg.sender].amount += msg.value;\n        campaign.amount += msg.value;\n\n        \n        emit Contribution(msg.sender);\n    }\n\n    function checkGoalReached(uint256 campaignID)\n        public\n        returns (bool reached)\n    {\n        Campaign storage c = campaigns[campaignID];\n        if (c.amount < c.fundingGoal) return false;\n        uint256 amount = c.amount;\n        c.amount = 0;\n        c.beneficiary.transfer(amount);\n        emit GoalReached(campaignID);\n        return true;\n        \n    }\n\n    function getBeneficiary(uint256 campaignID)\n        public\n        view\n        returns (address beneficiary)\n    {\n        Campaign memory campaign = campaigns[campaignID];\n        beneficiary = campaign.beneficiary;\n    }\n\n     function getCampaignAmount(uint256 campaignID)\n         public\n        view\n         returns (uint256 amount)\n     {\n         Campaign memory campaign = campaigns[campaignID];\n         amount = campaign.amount;\n     }\n}\n",
  "sourcePath": "/home/thiagosteps227/blockchain-developer-bootcamp-final-project/contracts/Crowdfunding.sol",
  "compiler": {
    "name": "solc",
    "version": "0.5.16+commit.9c3226ce.Emscripten.clang"
  },
  "schemaVersion": "3.4.3",
  "updatedAt": "2021-10-26T15:16:41.765Z",
  "devdoc": {
    "methods": {}
  },
  "userdoc": {
    "methods": {}
  }
}